S00B00004543322E737265635F
S11300000C94FE000C9417010C9419010C944301F8
S11300100C9417010C9417010C9417010C941701FC
S11300200C9417010C9417010C9417010C941701EC
S11300300C9417010C9417010C9417010C941701DC
S11300400C9417010C9417010C9417010C941701CC
S11300500C9417010C9417010C9417010C941701BC
S11300600C9417010C9417010C9417010C941701AC
S11300700C9417010C9417010C9417010C9417019C
S11300800C9417010C9417010C9417010C9417018C
S11300900C9417010C9417010C9417010C9417017C
S11300A00C9417010C9417010C9417010C9417016C
S11300B00C9417010C9417010C9417010C9417015C
S11300C00C9417010C9417010C9417010C9417014C
S11300D00C9417010C9417010C9417010C9417013C
S11300E00C9417010C9417010C9417010C9417012C
S11300F00C9417010C9417010C9417010C9417011C
S11301000C9417010C9417010C9417010C9417010B
S11301100C9417010C9417010C9417010C941701FB
S11301200C9417010C9417010C9417010C941701EB
S11301300C9417010C9417010C9417010C941701DB
S11301400C9417010C9417010C9417010C941701CB
S11301500C9417010C9417010C9417010C941701BB
S11301600C9417010C9417010C9417010C941701AB
S11301700C9417010C9417010C9417010C9417019B
S11301800C9417010C9417010C9417010C9417018B
S11301900C9417010C9417010C9417010C9417017B
S11301A00C9417010C9417010C9417010C9417016B
S11301B00C9417010C9417010C9417010C9417015B
S11301C00C9417010C9417010C9417010C9417014B
S11301D00C9417010C9417010C9417010C9417013B
S11301E00C9417010C9417010C9417010C9417012B
S11301F00C9417010C9417010C94170111241FBEC1
S1130200CFEFCDBFDFE3DEBF00E00CBF10E2A0E024
S1130210B0E2ECE0FFE000E00BBF02C007900D92FB
S1130220A431B107D9F70E94BE010C9484070C9441
S113023000001F920F920FB60F9211240BB60F926B
S11302402F933F934F935F936F937F938F939F93DA
S1130250AF93BF93EF93FF93F8940E9452021895C3
S1130260FF91EF91BF91AF919F918F917F916F918A
S11302705F914F913F912F910F900BBE0F900FBE46
S11302800F901F9018951F920F920FB60F92112482
S11302900BB60F92AF92BF92CF92DF92EF92FF9282
S11302A00F931F932F933F934F935F936F937F937A
S11302B08F939F93AF93BF93EF93FF93CF93DF936A
S11302C0CDB7DEB7C055D109CDBFDEBFF8940E94CB
S11302D04D020E945E020E946302F62EE72ED82E83
S11302E0C92E0E946F02162F072FB82EA92E0E9426
S11302F05802AF92BF920F931F9380E090E29F93B6
S11303008F938E010F5F1F4F1F930F930E94A704BB
S1130310C8010E94AD02CF92DF92EF92FF9289E072
S113032090E29F938F931F930F930E94A704C80199
S11303300E94AD021895CDBFDEBFC05BDF4FCDBFBD
S1130340DEBFDF91CF91FF91EF91BF91AF919F916C
S11303508F917F916F915F914F913F912F911F9159
S11303600F91FF90EF90DF90CF90BF90AF900F90E0
S11303700BBE0F900FBE0F901F9018950E94EE01B8
S11303800E9409020E942C020E943A020E949502D5
S11303900E9484020E94BC0278940E941C02E0E441
S11303A0F6E0A0E8B6E09FEF292F808584FF03C024
S11303B015969C931597808585FF03C015969C938D
S11303C01597808584FD03C016969C9316978085A7
S11303D085FDEBCF15962C931597E7CF88ED84BF59
S11303E0E0E5F0E09BE5928384BF88E08083E1E56B
S11303F0F0E0808183FFFDCF88ED84BFE0E4F0E08E
S113040093E0908384BF118284BF81E08093530082
S11304100895E0E2F6E088E0818384E08183E0E40B
S1130420F6E089E0818380E382838FEF8093810605
S113043081E08093A106089588E393E080933A03D2
S113044090933B038FEF8093850688E08093460664
S113045081E08093A506089510923A0310923B031D
S11304608FEF8093860688E08093450681E0809331
S1130470A6060895E0E0F8E082E0808381E18183CC
S11304808FE59AEE80A791A782A793A78FEF9FEF9E
S113049084A795A786A797A70895E0E0F9E01082BE
S11304A011820895E0E0F9E082E0808311820895EA
S11304B0E0E0F9E0108210A211A2089580912009D1
S11304C0909121090895BC0180E090E00E94AC0362
S11304D02DEB37E346E854E30E943A0408952CEAEE
S11304E035EC47E256E30E943A0320E030E04CE763
S11304F054E40E94CD029B01AC0160E070E080E80E
S11305009FE30E943A030895E0E2F3E085E88287DE
S11305108CE0838789E0808380E2818388E0828322
S11305208CE293E0828F938F0895E0EAFBE083E30B
S11305308683178288E1848383E08583E0EAF6E09A
S113054084E0828388E081830895E0EAFBE091817E
S113055095FFFDCF8093A00B0895CF93DF93EC011B
S11305608881882331F021960E94A5028991811106
S1130570FBCFDF91CF91089587E08093A200E0E460
S1130580F6E081E0848B82E0858B80E1828780E2E3
S113059083878BE08187789408955058BB27AA27D6
S11305A00E94E5020C9400040E94F20338F00E94B9
S11305B0F90320F039F49F3F19F426F40C94EF0367
S11305C00EF4E095E7FB0C94E903E92F0E94110473
S11305D058F3BA17620773078407950720F079F474
S11305E0A6F50C9433040EF4E0950B2EBA2FA02D2F
S11305F00B01B90190010C01CA01A0011124FF27CC
S1130600591B99F0593F50F4503E68F11A16F040C6
S1130610A22F232F342F4427585FF3CF46953795C5
S11306202795A795F0405395C9F77EF41F16BA0B8A
S1130630620B730B840BBAF09150A1F0FF0FBB1F38
S1130640661F771F881FC2F70EC0BA0F621F731F81
S1130650841F48F4879577956795B795F7959E3FDE
S113066008F0B0CF9395880F08F09927EE0F97956F
S1130670879508950E944E030C9400040E94F90388
S113068058F00E94F20340F029F45F3F29F00C94E3
S1130690E90351110C9434040C94EF030E941104E7
S11306A068F39923B1F3552391F3951B550BBB279D
S11306B0AA2762177307840738F09F5F5F4F220FE2
S11306C0331F441FAA1FA9F335D00E2E3AF0E0E8D9
S11306D032D091505040E695001CCAF72BD0FE2F23
S11306E029D0660F771F881FBB1F261737074807B7
S11306F0AB07B0E809F0BB0B802DBF01FF2793586F
S11307005F4F3AF09E3F510578F00C94E9030C9446
S113071034045F3FE4F3983ED4F386957795679568
S1130720B795F7959F5FC9F7880F911D96958795A3
S113073097F90895E1E0660F771F881FBB1F6217C2
S113074073078407BA0720F0621B730B840BBA0B80
S1130750EE1F88F7E0950895E89409C097FB3EF4EE
S113076090958095709561957F4F8F4F9F4F9923FA
S1130770A9F0F92F96E9BB279395F6958795779578
S11307806795B795F111F8CFFAF4BB0F11F460FF38
S11307901BC06F5F7F4F8F4F9F4F16C0882311F090
S11307A096E911C0772321F09EE8872F762F05C0A4
S11307B0662371F096E8862F70E060E02AF09A953F
S11307C0660F771F881FDAF7880F9695879597F934
S11307D0089597F99F6780E870E060E008959FEFBF
S11307E080EC089500240A941616170618060906C4
S11307F0089500240A941216130614060506089593
S1130800092E0394000C11F4882352F0BB0F40F41A
S1130810BF2B11F460FF04C06F5F7F4F8F4F9F4F5A
S1130820089557FD9058440F551F59F05F3F71F0DC
S11308304795880F97FB991F61F09F3F79F0879543
S11308400895121613061406551FF2CF4695F1DFCC
S113085008C0161617061806991FF1CF869571055C
S1130860610508940895E894BB2766277727CB0190
S113087097F908950E944D040C9400040E94F20319
S113088038F00E94F90320F0952311F00C94E90349
S11308900C94EF0311240C9434040E94110470F39B
S11308A0959FC1F3950F50E0551F629FF001729F11
S11308B0BB27F00DB11D639FAA27F00DB11DAA1F20
S11308C0649F6627B00DA11D661F829F2227B00D6D
S11308D0A11D621F739FB00DA11D621F839FA00DF8
S11308E0611D221F749F3327A00D611D231F849F48
S11308F0600D211D822F762F6A2F11249F5750409F
S11309009AF0F1F088234AF0EE0FFF1FBB1F661F19
S1130910771F881F91505040A9F79E3F510580F0E2
S11309200C94E9030C9434045F3FE4F3983ED4F34D
S1130930869577956795B795F795E7959F5FC1F786
S1130940FE2B880F911D9695879597F908950F931F
S11309501F93CF93DF93CDB7DEB72E97CDBFDEBF06
S11309600E891F8986E08C8309831A838FEF9FE7A2
S11309708D839E83AE01465E5F4F688D798DCE0177
S113098001960E94D004EF81F885E00FF11F1082D8
S11309902E96CDBFDEBFDF91CF911F910F910895A9
S11309A02F923F924F925F926F927F928F929F927B
S11309B0AF92BF92CF92DF92EF92FF920F931F9369
S11309C0CF93DF93CDB7DEB72B97CDBFDEBF6C01DE
S11309D07B018A01FC0116821782838181FFCCC1CD
S11309E0CE0101963C01F6019381F70193FD8591B7
S11309F093FF81917F01882309F4BAC1853239F4C8
S1130A0093FD859193FF81917F01853229F4B6018D
S1130A1090E00E94EA06E7CF912C212C312CFFE1D3
S1130A20F315D8F08B3279F038F4803279F08332D0
S1130A30A1F4232D20611DC08D3261F0803369F44F
S1130A40232D216016C0832D8260382EE32DE460AF
S1130A503E2E2AC0F32DF8601DC037FC2DC020EDBA
S1130A60280F2A3040F08E32B9F436FC81C1232D90
S1130A702064322E19C036FE06C08AE0989E200DEE
S1130A801124922E11C0EAE02E9E200D1124222E54
S1130A90F32DF0623F2E08C08C3621F4832D80683C
S1130AA0382E02C0883641F4F70193FD859193FFF7
S1130AB081917F018111B3CF982F9F7D95549330FD
S1130AC028F40C5F1F4F9FE399830DC0833631F0E8
S1130AD0833771F0833509F059C021C0F801808152
S1130AE089830E5F1F4F88248394912C530113C074
S1130AF02801F2E04F0E511CF801A080B18036FEAF
S1130B0003C0692D70E002C06FEF7FEFC5010E9442
S1130B10DF064C018201F32DFF773F2E16C028011A
S1130B2022E0420E511CF801A080B18036FE03C0C1
S1130B30692D70E002C06FEF7FEFC5010E94D406FB
S1130B404C01F32DF0683F2E820133FC1BC0822D33
S1130B5090E088169906B0F4B60180E290E00E9415
S1130B60EA062A94F4CFF50137FC859137FE81918A
S1130B705F01B60190E00E94EA0621102A9421E068
S1130B80821A91088114910471F7E8C0843611F037
S1130B90893641F5F80137FE07C060817181828191
S1130BA093810C5F1F4F08C060817181072E000C78
S1130BB0880B990B0E5F1F4FF32DFF763F2E97FF87
S1130BC009C090958095709561957F4F8F4F9F4F89
S1130BD0F0683F2E2AE030E0A3010E942607882E09
S1130BE0861845C0853731F4232D2F7EB22E2AE096
S1130BF030E025C0932D997FB92E8F36C1F018F4BB
S1130C00883579F0B5C0803719F0883721F0B0C045
S1130C10E92FE061BE2EB4FE0DC0FB2DF460BF2EA3
S1130C2009C034FE0AC0292F2660B22E06C028E06F
S1130C3030E005C020E130E002C020E132E0F801FC
S1130C40B7FE07C060817181828193810C5F1F4F61
S1130C5006C06081718180E090E00E5F1F4FA301A8
S1130C600E942607882E8618FB2DFF773F2E36FE1E
S1130C700DC0232D2E7FA22E891458F434FE0BC0F0
S1130C8032FC09C0832D8E7EA82E05C0B82CA32C5F
S1130C9003C0B82C01C0B92CA4FE0FC0FE01E80D9E
S1130CA0F11D8081803321F49A2D997EA92E09C0EB
S1130CB0A2FE06C0B394B39404C08A2D867809F0CA
S1130CC0B394A3FC11C0A0FE06C0B21488F4280C8F
S1130CD0922C9B180EC0B21460F4B60180E290E02E
S1130CE00E94EA06B394F7CFB21418F42B1802C08A
S1130CF0982C212CA4FE10C0B60180E390E00E9441
S1130D00EA06A2FE17C0A1FC03C088E790E002C077
S1130D1088E590E0B6010CC08A2D867859F0A1FED2
S1130D2002C08BE201C080E2A7FC8DE2B60190E034
S1130D300E94EA06891438F4B60180E390E00E9428
S1130D40EA069A94F7CF8A94F301E80DF11D8081A5
S1130D50B60190E00E94EA068110F5CF222009F442
S1130D6042CEB60180E290E00E94EA062A94F6CFD1
S1130D70F6018681978102C08FEF9FEF2B96CDBF3E
S1130D80DEBFDF91CF911F910F91FF90EF90DF9025
S1130D90CF90BF90AF909F908F907F906F905F9017
S1130DA04F903F902F900895FC0105906150704042
S1130DB00110D8F7809590958E0F9F1F0895FC0120
S1130DC06150704001900110D8F7809590958E0F76
S1130DD09F1F08950F931F93CF93DF93FB012381EC
S1130DE021FD03C08FEF9FEF2CC022FF16C0468168
S1130DF05781248135814217530744F4A081B1817E
S1130E009D012F5F3F4F208331838C93268137814F
S1130E102F5F3F4F2683378314C08B01EC01FB0106
S1130E200084F185E02D1995892BE1F6D8011696F9
S1130E308D919C911797019616968D939C93179775
S1130E40CE01DF91CF911F910F910895FA01AA2746
S1130E50283051F1203181F1E8946F936E7F6E5FF9
S1130E607F4F8F4F9F4FAF4FB1E03ED0B4E03CD0A7
S1130E70670F781F891F9A1FA11D680F791F8A1F8A
S1130E80911DA11D6A0F711D811D911DA11D20D0F1
S1130E9009F468943F912AE0269F11243019305DAB
S1130EA03193DEF6CF010895462F4770405D41939C
S1130EB0B3E00FD0C9F7F6CF462F4F70405D4A33E9
S1130EC018F0495D31FD4052419302D0A9F7EACFB1
S1130ED0B4E0A6959795879577956795BA95C9F7E0
S1130EE000976105710508959B01AC010A2E0694D3
S1130EF05795479537952795BA95C9F7620F731F8C
S10F0F00841F951FA01D0895F894FFCFD6
S1130F0C45433A202566200D005469643A20256631
S1070F1C200D0000A0
S9030000FC
